{
  "transactions": [
    {
      "hash": "0xec24838205e6b4c4fcc2d3a7694744460b9bc60c3e5ae24b7050626aedd92fa2",
      "transactionType": "CALL",
      "contractName": "ProtocolRegistry",
      "contractAddress": "0xfc7d0ae8b0570726564ac26d658aaca63e3b600a",
      "function": "grantRole(bytes32,address)",
      "arguments": [
        "0x0000000000000000000000000000000000000000000000000000000000000000",
        "0x50e2A9e98A62e371880967791043d45c0c46cC37"
      ],
      "transaction": {
        "from": "0x48c84be840d0b024bf2fcf190313a8bcdb31c6bc",
        "to": "0xfc7d0ae8b0570726564ac26d658aaca63e3b600a",
        "gas": "0x113d6",
        "value": "0x0",
        "input": "0x2f2ff15d000000000000000000000000000000000000000000000000000000000000000000000000000000000000000050e2a9e98a62e371880967791043d45c0c46cc37",
        "nonce": "0x5",
        "chainId": "0xaa36a7"
      },
      "additionalContracts": [],
      "isFixedGasLimit": false
    },
    {
      "hash": "0xf427d75ba8190d8ab851a88f07287f3dde47adfd74b59f4671535a6acaa8c6a6",
      "transactionType": "CALL",
      "contractName": "ProtocolRegistry",
      "contractAddress": "0xfc7d0ae8b0570726564ac26d658aaca63e3b600a",
      "function": "grantRole(bytes32,address)",
      "arguments": [
        "0xa49807205ce4d355092ef5a8a18f56e8913cf4a201fbe287825b095693c21775",
        "0x50e2A9e98A62e371880967791043d45c0c46cC37"
      ],
      "transaction": {
        "from": "0x48c84be840d0b024bf2fcf190313a8bcdb31c6bc",
        "to": "0xfc7d0ae8b0570726564ac26d658aaca63e3b600a",
        "gas": "0x115e9",
        "value": "0x0",
        "input": "0x2f2ff15da49807205ce4d355092ef5a8a18f56e8913cf4a201fbe287825b095693c2177500000000000000000000000050e2a9e98a62e371880967791043d45c0c46cc37",
        "nonce": "0x6",
        "chainId": "0xaa36a7"
      },
      "additionalContracts": [],
      "isFixedGasLimit": false
    },
    {
      "hash": "0xe367ace9e18fb80e2ce4b66211e5f53b1e4204c4db4742290e7d510b2e05d325",
      "transactionType": "CALL",
      "contractName": null,
      "contractAddress": "0x3dcac4164be689edaddac8536ac3c98e97cf6a59",
      "function": "grantRole(bytes32,address)",
      "arguments": [
        "0x0000000000000000000000000000000000000000000000000000000000000000",
        "0x50e2A9e98A62e371880967791043d45c0c46cC37"
      ],
      "transaction": {
        "from": "0x48c84be840d0b024bf2fcf190313a8bcdb31c6bc",
        "to": "0x3dcac4164be689edaddac8536ac3c98e97cf6a59",
        "gas": "0x1242f",
        "value": "0x0",
        "input": "0x2f2ff15d000000000000000000000000000000000000000000000000000000000000000000000000000000000000000050e2a9e98a62e371880967791043d45c0c46cc37",
        "nonce": "0x7",
        "chainId": "0xaa36a7"
      },
      "additionalContracts": [],
      "isFixedGasLimit": false
    },
    {
      "hash": "0x9eb370ebf538eca7bf8102fc1ebdcfbf54f99d0ed14f4d78a23e267dcdbc2bf0",
      "transactionType": "CALL",
      "contractName": null,
      "contractAddress": "0x3dcac4164be689edaddac8536ac3c98e97cf6a59",
      "function": "grantRole(bytes32,address)",
      "arguments": [
        "0xa49807205ce4d355092ef5a8a18f56e8913cf4a201fbe287825b095693c21775",
        "0x50e2A9e98A62e371880967791043d45c0c46cC37"
      ],
      "transaction": {
        "from": "0x48c84be840d0b024bf2fcf190313a8bcdb31c6bc",
        "to": "0x3dcac4164be689edaddac8536ac3c98e97cf6a59",
        "gas": "0x12661",
        "value": "0x0",
        "input": "0x2f2ff15da49807205ce4d355092ef5a8a18f56e8913cf4a201fbe287825b095693c2177500000000000000000000000050e2a9e98a62e371880967791043d45c0c46cc37",
        "nonce": "0x8",
        "chainId": "0xaa36a7"
      },
      "additionalContracts": [],
      "isFixedGasLimit": false
    },
    {
      "hash": "0x24fd5607a3ea07b34ef7d92db36ca86ee4289839bb53698ac1ae4612f2bfef97",
      "transactionType": "CALL",
      "contractName": null,
      "contractAddress": "0xc4ec5c861ee492d9911881226f805f8004cba70c",
      "function": "grantRole(bytes32,address)",
      "arguments": [
        "0x0000000000000000000000000000000000000000000000000000000000000000",
        "0x50e2A9e98A62e371880967791043d45c0c46cC37"
      ],
      "transaction": {
        "from": "0x48c84be840d0b024bf2fcf190313a8bcdb31c6bc",
        "to": "0xc4ec5c861ee492d9911881226f805f8004cba70c",
        "gas": "0x11413",
        "value": "0x0",
        "input": "0x2f2ff15d000000000000000000000000000000000000000000000000000000000000000000000000000000000000000050e2a9e98a62e371880967791043d45c0c46cc37",
        "nonce": "0x9",
        "chainId": "0xaa36a7"
      },
      "additionalContracts": [],
      "isFixedGasLimit": false
    },
    {
      "hash": "0x1f8d8edef7513f95f8b436c61fc7d17b659ffec488a664d3cb564e245ac6b630",
      "transactionType": "CALL",
      "contractName": null,
      "contractAddress": "0xc4ec5c861ee492d9911881226f805f8004cba70c",
      "function": "grantRole(bytes32,address)",
      "arguments": [
        "0xa49807205ce4d355092ef5a8a18f56e8913cf4a201fbe287825b095693c21775",
        "0x50e2A9e98A62e371880967791043d45c0c46cC37"
      ],
      "transaction": {
        "from": "0x48c84be840d0b024bf2fcf190313a8bcdb31c6bc",
        "to": "0xc4ec5c861ee492d9911881226f805f8004cba70c",
        "gas": "0x11626",
        "value": "0x0",
        "input": "0x2f2ff15da49807205ce4d355092ef5a8a18f56e8913cf4a201fbe287825b095693c2177500000000000000000000000050e2a9e98a62e371880967791043d45c0c46cc37",
        "nonce": "0xa",
        "chainId": "0xaa36a7"
      },
      "additionalContracts": [],
      "isFixedGasLimit": false
    }
  ],
  "receipts": [
    {
      "status": "0x1",
      "cumulativeGasUsed": "0xd09d92",
      "logs": [
        {
          "address": "0xfc7d0ae8b0570726564ac26d658aaca63e3b600a",
          "topics": [
            "0x2f8788117e7eff1d82e926ec794901d17c78024a50270940304540a733656f0d",
            "0x0000000000000000000000000000000000000000000000000000000000000000",
            "0x00000000000000000000000050e2a9e98a62e371880967791043d45c0c46cc37",
            "0x00000000000000000000000048c84be840d0b024bf2fcf190313a8bcdb31c6bc"
          ],
          "data": "0x",
          "blockHash": "0x6b6374adb6a5a8d9a8b46eb1fe7ff7a7899bc8f750951d95d273511afd408527",
          "blockNumber": "0x95e220",
          "blockTimestamp": "0x693bc0ac",
          "transactionHash": "0x1f8d8edef7513f95f8b436c61fc7d17b659ffec488a664d3cb564e245ac6b630",
          "transactionIndex": "0x5d",
          "logIndex": "0x1c6",
          "removed": false
        }
      ],
      "logsBloom": "0x00000004000000000000000000000000000000000000001000000000000000000000000200000004000000000000000001000000000000000000000000000000000040001000000000000000000000000000000000000000000000000000000000000000020000000000040000000800000000000000000000000000000000000000000000000000000000000000000000000000000000010000000000000000000000000000000000000000000000000000000000000000001000000000000000000000000000000000000000000000000000000000000100000000000020000000000000000000000000000000080000000000000000000000000000000000",
      "type": "0x2",
      "transactionHash": "0x1f8d8edef7513f95f8b436c61fc7d17b659ffec488a664d3cb564e245ac6b630",
      "transactionIndex": "0x5d",
      "blockHash": "0x6b6374adb6a5a8d9a8b46eb1fe7ff7a7899bc8f750951d95d273511afd408527",
      "blockNumber": "0x95e220",
      "gasUsed": "0xc7b4",
      "effectiveGasPrice": "0x1165d9",
      "from": "0x48c84be840d0b024bf2fcf190313a8bcdb31c6bc",
      "to": "0xfc7d0ae8b0570726564ac26d658aaca63e3b600a",
      "contractAddress": null
    },
    {
      "status": "0x1",
      "cumulativeGasUsed": "0xd166c6",
      "logs": [
        {
          "address": "0xfc7d0ae8b0570726564ac26d658aaca63e3b600a",
          "topics": [
            "0x2f8788117e7eff1d82e926ec794901d17c78024a50270940304540a733656f0d",
            "0xa49807205ce4d355092ef5a8a18f56e8913cf4a201fbe287825b095693c21775",
            "0x00000000000000000000000050e2a9e98a62e371880967791043d45c0c46cc37",
            "0x00000000000000000000000048c84be840d0b024bf2fcf190313a8bcdb31c6bc"
          ],
          "data": "0x",
          "blockHash": "0x6b6374adb6a5a8d9a8b46eb1fe7ff7a7899bc8f750951d95d273511afd408527",
          "blockNumber": "0x95e220",
          "blockTimestamp": "0x693bc0ac",
          "transactionHash": "0xf427d75ba8190d8ab851a88f07287f3dde47adfd74b59f4671535a6acaa8c6a6",
          "transactionIndex": "0x5e",
          "logIndex": "0x1c7",
          "removed": false
        }
      ],
      "logsBloom": "0x00000004000000000000000000000000000000000000001000000000000000000000000200000004000000000000000001000000000000000000000000000000000040001000000000000000000000000000000020000000000000000000000000000000000000000000040000000000000000000000000800000000000000000000000000000000000000000000004000000000000000010000000000000000000000000000000000000000000000000000000000000000001000000000000000000000000000000000000000000000000000000000000100000000000000000000000000000000000000000000080000000000000000000000000000000000",
      "type": "0x2",
      "transactionHash": "0xf427d75ba8190d8ab851a88f07287f3dde47adfd74b59f4671535a6acaa8c6a6",
      "transactionIndex": "0x5e",
      "blockHash": "0x6b6374adb6a5a8d9a8b46eb1fe7ff7a7899bc8f750951d95d273511afd408527",
      "blockNumber": "0x95e220",
      "gasUsed": "0xc934",
      "effectiveGasPrice": "0x1165d9",
      "from": "0x48c84be840d0b024bf2fcf190313a8bcdb31c6bc",
      "to": "0xfc7d0ae8b0570726564ac26d658aaca63e3b600a",
      "contractAddress": null
    },
    {
      "status": "0x1",
      "cumulativeGasUsed": "0xd22e8f",
      "logs": [
        {
          "address": "0x3dcac4164be689edaddac8536ac3c98e97cf6a59",
          "topics": [
            "0x2f8788117e7eff1d82e926ec794901d17c78024a50270940304540a733656f0d",
            "0x0000000000000000000000000000000000000000000000000000000000000000",
            "0x00000000000000000000000050e2a9e98a62e371880967791043d45c0c46cc37",
            "0x00000000000000000000000048c84be840d0b024bf2fcf190313a8bcdb31c6bc"
          ],
          "data": "0x",
          "blockHash": "0x6b6374adb6a5a8d9a8b46eb1fe7ff7a7899bc8f750951d95d273511afd408527",
          "blockNumber": "0x95e220",
          "blockTimestamp": "0x693bc0ac",
          "transactionHash": "0x24fd5607a3ea07b34ef7d92db36ca86ee4289839bb53698ac1ae4612f2bfef97",
          "transactionIndex": "0x5f",
          "logIndex": "0x1c8",
          "removed": false
        }
      ],
      "logsBloom": "0x00000004000000000000000000000000000000000000000000000000000000000000000201000004000000000000000001000000000000000000000000000000000040001000000000000000000000000000000000000000000000000000000000000000020000000000000000000800000000000000000000000000000000000000000000000000000000000000210000000000000000010000000000000000000000000000000000000000000000000000000000000000001000000000000000000000000000000000000000000000000000000000000100000000000020000000000000000000000000000000000000000000000000000000000000000000",
      "type": "0x2",
      "transactionHash": "0x24fd5607a3ea07b34ef7d92db36ca86ee4289839bb53698ac1ae4612f2bfef97",
      "transactionIndex": "0x5f",
      "blockHash": "0x6b6374adb6a5a8d9a8b46eb1fe7ff7a7899bc8f750951d95d273511afd408527",
      "blockNumber": "0x95e220",
      "gasUsed": "0xc7c9",
      "effectiveGasPrice": "0x1165d9",
      "from": "0x48c84be840d0b024bf2fcf190313a8bcdb31c6bc",
      "to": "0x3dcac4164be689edaddac8536ac3c98e97cf6a59",
      "contractAddress": null
    },
    {
      "status": "0x1",
      "cumulativeGasUsed": "0xd2f7d8",
      "logs": [
        {
          "address": "0x3dcac4164be689edaddac8536ac3c98e97cf6a59",
          "topics": [
            "0x2f8788117e7eff1d82e926ec794901d17c78024a50270940304540a733656f0d",
            "0xa49807205ce4d355092ef5a8a18f56e8913cf4a201fbe287825b095693c21775",
            "0x00000000000000000000000050e2a9e98a62e371880967791043d45c0c46cc37",
            "0x00000000000000000000000048c84be840d0b024bf2fcf190313a8bcdb31c6bc"
          ],
          "data": "0x",
          "blockHash": "0x6b6374adb6a5a8d9a8b46eb1fe7ff7a7899bc8f750951d95d273511afd408527",
          "blockNumber": "0x95e220",
          "blockTimestamp": "0x693bc0ac",
          "transactionHash": "0xec24838205e6b4c4fcc2d3a7694744460b9bc60c3e5ae24b7050626aedd92fa2",
          "transactionIndex": "0x60",
          "logIndex": "0x1c9",
          "removed": false
        }
      ],
      "logsBloom": "0x00000004000000000000000000000000000000000000000000000000000000000000000201000004000000000000000001000000000000000000000000000000000040001000000000000000000000000000000020000000000000000000000000000000000000000000000000000000000000000000000800000000000000000000000000000000000000000000214000000000000000010000000000000000000000000000000000000000000000000000000000000000001000000000000000000000000000000000000000000000000000000000000100000000000000000000000000000000000000000000000000000000000000000000000000000000",
      "type": "0x2",
      "transactionHash": "0xec24838205e6b4c4fcc2d3a7694744460b9bc60c3e5ae24b7050626aedd92fa2",
      "transactionIndex": "0x60",
      "blockHash": "0x6b6374adb6a5a8d9a8b46eb1fe7ff7a7899bc8f750951d95d273511afd408527",
      "blockNumber": "0x95e220",
      "gasUsed": "0xc949",
      "effectiveGasPrice": "0x1165d9",
      "from": "0x48c84be840d0b024bf2fcf190313a8bcdb31c6bc",
      "to": "0x3dcac4164be689edaddac8536ac3c98e97cf6a59",
      "contractAddress": null
    },
    {
      "status": "0x1",
      "cumulativeGasUsed": "0xd3bfb8",
      "logs": [
        {
          "address": "0xc4ec5c861ee492d9911881226f805f8004cba70c",
          "topics": [
            "0x2f8788117e7eff1d82e926ec794901d17c78024a50270940304540a733656f0d",
            "0x0000000000000000000000000000000000000000000000000000000000000000",
            "0x00000000000000000000000050e2a9e98a62e371880967791043d45c0c46cc37",
            "0x00000000000000000000000048c84be840d0b024bf2fcf190313a8bcdb31c6bc"
          ],
          "data": "0x",
          "blockHash": "0x6b6374adb6a5a8d9a8b46eb1fe7ff7a7899bc8f750951d95d273511afd408527",
          "blockNumber": "0x95e220",
          "blockTimestamp": "0x693bc0ac",
          "transactionHash": "0x9eb370ebf538eca7bf8102fc1ebdcfbf54f99d0ed14f4d78a23e267dcdbc2bf0",
          "transactionIndex": "0x61",
          "logIndex": "0x1ca",
          "removed": false
        }
      ],
      "logsBloom": "0x00000004000000000000000000000000000000000000000000000000000000000000000200000004000000000000020001000000000040000000000000000000000040001000000000000000000000000000000000000000000000000000000000000000020000000000000000000800000000000000000000000000000000000000000000000000000000000000000000000000000000010000000000000000000000000000000000000000000000000000000000000000001000000000000000000000000000000000000000000000000000000000000100000000000020000000000000000000000001000000000000000000000000000000000000000000",
      "type": "0x2",
      "transactionHash": "0x9eb370ebf538eca7bf8102fc1ebdcfbf54f99d0ed14f4d78a23e267dcdbc2bf0",
      "transactionIndex": "0x61",
      "blockHash": "0x6b6374adb6a5a8d9a8b46eb1fe7ff7a7899bc8f750951d95d273511afd408527",
      "blockNumber": "0x95e220",
      "gasUsed": "0xc7e0",
      "effectiveGasPrice": "0x1165d9",
      "from": "0x48c84be840d0b024bf2fcf190313a8bcdb31c6bc",
      "to": "0xc4ec5c861ee492d9911881226f805f8004cba70c",
      "contractAddress": null
    },
    {
      "status": "0x1",
      "cumulativeGasUsed": "0xd48918",
      "logs": [
        {
          "address": "0xc4ec5c861ee492d9911881226f805f8004cba70c",
          "topics": [
            "0x2f8788117e7eff1d82e926ec794901d17c78024a50270940304540a733656f0d",
            "0xa49807205ce4d355092ef5a8a18f56e8913cf4a201fbe287825b095693c21775",
            "0x00000000000000000000000050e2a9e98a62e371880967791043d45c0c46cc37",
            "0x00000000000000000000000048c84be840d0b024bf2fcf190313a8bcdb31c6bc"
          ],
          "data": "0x",
          "blockHash": "0x6b6374adb6a5a8d9a8b46eb1fe7ff7a7899bc8f750951d95d273511afd408527",
          "blockNumber": "0x95e220",
          "blockTimestamp": "0x693bc0ac",
          "transactionHash": "0xe367ace9e18fb80e2ce4b66211e5f53b1e4204c4db4742290e7d510b2e05d325",
          "transactionIndex": "0x62",
          "logIndex": "0x1cb",
          "removed": false
        }
      ],
      "logsBloom": "0x00000004000000000000000000000000000000000000000000000000000000000000000200000004000000000000020001000000000040000000000000000000000040001000000000000000000000000000000020000000000000000000000000000000000000000000000000000000000000000000000800000000000000000000000000000000000000000000004000000000000000010000000000000000000000000000000000000000000000000000000000000000001000000000000000000000000000000000000000000000000000000000000100000000000000000000000000000000000001000000000000000000000000000000000000000000",
      "type": "0x2",
      "transactionHash": "0xe367ace9e18fb80e2ce4b66211e5f53b1e4204c4db4742290e7d510b2e05d325",
      "transactionIndex": "0x62",
      "blockHash": "0x6b6374adb6a5a8d9a8b46eb1fe7ff7a7899bc8f750951d95d273511afd408527",
      "blockNumber": "0x95e220",
      "gasUsed": "0xc960",
      "effectiveGasPrice": "0x1165d9",
      "from": "0x48c84be840d0b024bf2fcf190313a8bcdb31c6bc",
      "to": "0xc4ec5c861ee492d9911881226f805f8004cba70c",
      "contractAddress": null
    }
  ],
  "libraries": [],
  "pending": [],
  "returns": {},
  "timestamp": 1765523629951,
  "chain": 11155111,
  "commit": "8247b60"
}